{
  "contractName": "Auction",
  "abi": [
    {
      "inputs": [],
      "stateMutability": "nonpayable",
      "type": "constructor"
    },
    {
      "anonymous": false,
      "inputs": [
        {
          "indexed": false,
          "internalType": "address",
          "name": "winner",
          "type": "address"
        },
        {
          "indexed": false,
          "internalType": "uint256",
          "name": "amount",
          "type": "uint256"
        }
      ],
      "name": "AuctionEnded",
      "type": "event"
    },
    {
      "anonymous": false,
      "inputs": [
        {
          "indexed": false,
          "internalType": "address",
          "name": "bidder",
          "type": "address"
        },
        {
          "indexed": false,
          "internalType": "uint256",
          "name": "amount",
          "type": "uint256"
        }
      ],
      "name": "HighestBidIncreased",
      "type": "event"
    },
    {
      "inputs": [],
      "name": "auctionState",
      "outputs": [
        {
          "internalType": "enum Auction.State",
          "name": "",
          "type": "uint8"
        }
      ],
      "stateMutability": "view",
      "type": "function"
    },
    {
      "inputs": [
        {
          "internalType": "address",
          "name": "",
          "type": "address"
        }
      ],
      "name": "bids",
      "outputs": [
        {
          "internalType": "uint256",
          "name": "",
          "type": "uint256"
        }
      ],
      "stateMutability": "view",
      "type": "function"
    },
    {
      "inputs": [],
      "name": "endBlock",
      "outputs": [
        {
          "internalType": "uint256",
          "name": "",
          "type": "uint256"
        }
      ],
      "stateMutability": "view",
      "type": "function"
    },
    {
      "inputs": [],
      "name": "highestBid",
      "outputs": [
        {
          "internalType": "uint256",
          "name": "",
          "type": "uint256"
        }
      ],
      "stateMutability": "view",
      "type": "function"
    },
    {
      "inputs": [],
      "name": "highestBidder",
      "outputs": [
        {
          "internalType": "address",
          "name": "",
          "type": "address"
        }
      ],
      "stateMutability": "view",
      "type": "function"
    },
    {
      "inputs": [],
      "name": "owner",
      "outputs": [
        {
          "internalType": "address",
          "name": "",
          "type": "address"
        }
      ],
      "stateMutability": "view",
      "type": "function"
    },
    {
      "inputs": [
        {
          "internalType": "uint256",
          "name": "",
          "type": "uint256"
        }
      ],
      "name": "participants",
      "outputs": [
        {
          "internalType": "address",
          "name": "",
          "type": "address"
        }
      ],
      "stateMutability": "view",
      "type": "function"
    },
    {
      "inputs": [],
      "name": "startBlock",
      "outputs": [
        {
          "internalType": "uint256",
          "name": "",
          "type": "uint256"
        }
      ],
      "stateMutability": "view",
      "type": "function"
    },
    {
      "inputs": [],
      "name": "bid",
      "outputs": [],
      "stateMutability": "payable",
      "type": "function"
    },
    {
      "inputs": [],
      "name": "withdraw",
      "outputs": [],
      "stateMutability": "nonpayable",
      "type": "function"
    },
    {
      "inputs": [],
      "name": "cancelAuction",
      "outputs": [],
      "stateMutability": "nonpayable",
      "type": "function"
    },
    {
      "inputs": [],
      "name": "endAuction",
      "outputs": [],
      "stateMutability": "payable",
      "type": "function"
    }
  ],
  "bytecode": "0x608060405234801561001057600080fd5b50336000806101000a81548173ffffffffffffffffffffffffffffffffffffffff021916908373ffffffffffffffffffffffffffffffffffffffff1602179055506001600760006101000a81548160ff021916908360038111156100775761007661009d565b5b02179055504360018190555060056001546100929190610105565b600281905550610139565b7f4e487b7100000000000000000000000000000000000000000000000000000000600052602160045260246000fd5b6000819050919050565b7f4e487b7100000000000000000000000000000000000000000000000000000000600052601160045260246000fd5b6000610110826100cc565b915061011b836100cc565b9250828201905080821115610133576101326100d6565b5b92915050565b61107480620001496000396000f3fe6080604052600436106100a75760003560e01c80637fb45099116100645780637fb450991461019d5780638da5cb5b146101c85780638fa8b790146101f357806391f901571461020a578063d57bde7914610235578063fe67a54b14610260576100a7565b8063083c6323146100ac5780631998aeef146100d757806335c1d349146100e15780633ccfd60b1461011e57806348cd4cb11461013557806362ea82db14610160575b600080fd5b3480156100b857600080fd5b506100c161026a565b6040516100ce9190610aa1565b60405180910390f35b6100df610270565b005b3480156100ed57600080fd5b5061010860048036038101906101039190610aed565b61058b565b6040516101159190610b5b565b60405180910390f35b34801561012a57600080fd5b506101336105ca565b005b34801561014157600080fd5b5061014a6106a7565b6040516101579190610aa1565b60405180910390f35b34801561016c57600080fd5b5061018760048036038101906101829190610ba2565b6106ad565b6040516101949190610aa1565b60405180910390f35b3480156101a957600080fd5b506101b26106c5565b6040516101bf9190610c46565b60405180910390f35b3480156101d457600080fd5b506101dd6106d8565b6040516101ea9190610b5b565b60405180910390f35b3480156101ff57600080fd5b506102086106fc565b005b34801561021657600080fd5b5061021f610820565b60405161022c9190610b5b565b60405180910390f35b34801561024157600080fd5b5061024a610846565b6040516102579190610aa1565b60405180910390f35b61026861084c565b005b60025481565b60025443106102b4576040517f08c379a00000000000000000000000000000000000000000000000000000000081526004016102ab90610cbe565b60405180910390fd5b600160038111156102c8576102c7610bcf565b5b600760009054906101000a900460ff1660038111156102ea576102e9610bcf565b5b1461032a576040517f08c379a000000000000000000000000000000000000000000000000000000000815260040161032190610d2a565b60405180910390fd5b600354341161036e576040517f08c379a000000000000000000000000000000000000000000000000000000000815260040161036590610d96565b60405180910390fd5b60008054906101000a900473ffffffffffffffffffffffffffffffffffffffff1673ffffffffffffffffffffffffffffffffffffffff163373ffffffffffffffffffffffffffffffffffffffff16036103fc576040517f08c379a00000000000000000000000000000000000000000000000000000000081526004016103f390610e28565b60405180910390fd5b6000600354146104e45760035460066000600460009054906101000a900473ffffffffffffffffffffffffffffffffffffffff1673ffffffffffffffffffffffffffffffffffffffff1673ffffffffffffffffffffffffffffffffffffffff16815260200190815260200160002060008282546104799190610e77565b925050819055506005339080600181540180825580915050600190039060005260206000200160009091909190916101000a81548173ffffffffffffffffffffffffffffffffffffffff021916908373ffffffffffffffffffffffffffffffffffffffff1602179055505b3460038190555033600460006101000a81548173ffffffffffffffffffffffffffffffffffffffff021916908373ffffffffffffffffffffffffffffffffffffffff1602179055507ff4757a49b326036464bec6fe419a4ae38c8a02ce3e68bf0809674f6aab8ad300600460009054906101000a900473ffffffffffffffffffffffffffffffffffffffff16600354604051610581929190610eab565b60405180910390a1565b6005818154811061059b57600080fd5b906000526020600020016000915054906101000a900473ffffffffffffffffffffffffffffffffffffffff1681565b6000600660003373ffffffffffffffffffffffffffffffffffffffff1673ffffffffffffffffffffffffffffffffffffffff16815260200190815260200160002054905060008111156106a4576000600660003373ffffffffffffffffffffffffffffffffffffffff1673ffffffffffffffffffffffffffffffffffffffff168152602001908152602001600020819055503373ffffffffffffffffffffffffffffffffffffffff166108fc829081150290604051600060405180830381858888f193505050501580156106a2573d6000803e3d6000fd5b505b50565b60015481565b60066020528060005260406000206000915090505481565b600760009054906101000a900460ff1681565b60008054906101000a900473ffffffffffffffffffffffffffffffffffffffff1681565b60008054906101000a900473ffffffffffffffffffffffffffffffffffffffff1673ffffffffffffffffffffffffffffffffffffffff163373ffffffffffffffffffffffffffffffffffffffff161461078a576040517f08c379a000000000000000000000000000000000000000000000000000000000815260040161078190610f46565b60405180910390fd5b6003600760006101000a81548160ff021916908360038111156107b0576107af610bcf565b5b021790555060008054906101000a900473ffffffffffffffffffffffffffffffffffffffff1673ffffffffffffffffffffffffffffffffffffffff166108fc6003549081150290604051600060405180830381858888f1935050505015801561081d573d6000803e3d6000fd5b50565b600460009054906101000a900473ffffffffffffffffffffffffffffffffffffffff1681565b60035481565b60008054906101000a900473ffffffffffffffffffffffffffffffffffffffff1673ffffffffffffffffffffffffffffffffffffffff163373ffffffffffffffffffffffffffffffffffffffff16146108da576040517f08c379a00000000000000000000000000000000000000000000000000000000081526004016108d190610f46565b60405180910390fd5b60025443101561091f576040517f08c379a000000000000000000000000000000000000000000000000000000000815260040161091690610fb2565b60405180910390fd5b6001600381111561093357610932610bcf565b5b600760009054906101000a900460ff16600381111561095557610954610bcf565b5b14610995576040517f08c379a000000000000000000000000000000000000000000000000000000000815260040161098c9061101e565b60405180910390fd5b6002600760006101000a81548160ff021916908360038111156109bb576109ba610bcf565b5b02179055507fdaec4582d5d9595688c8c98545fdd1c696d41c6aeaeb636737e84ed2f5c00eda600460009054906101000a900473ffffffffffffffffffffffffffffffffffffffff16600354604051610a15929190610eab565b60405180910390a160008054906101000a900473ffffffffffffffffffffffffffffffffffffffff1673ffffffffffffffffffffffffffffffffffffffff166108fc6003549081150290604051600060405180830381858888f19350505050158015610a85573d6000803e3d6000fd5b50565b6000819050919050565b610a9b81610a88565b82525050565b6000602082019050610ab66000830184610a92565b92915050565b600080fd5b610aca81610a88565b8114610ad557600080fd5b50565b600081359050610ae781610ac1565b92915050565b600060208284031215610b0357610b02610abc565b5b6000610b1184828501610ad8565b91505092915050565b600073ffffffffffffffffffffffffffffffffffffffff82169050919050565b6000610b4582610b1a565b9050919050565b610b5581610b3a565b82525050565b6000602082019050610b706000830184610b4c565b92915050565b610b7f81610b3a565b8114610b8a57600080fd5b50565b600081359050610b9c81610b76565b92915050565b600060208284031215610bb857610bb7610abc565b5b6000610bc684828501610b8d565b91505092915050565b7f4e487b7100000000000000000000000000000000000000000000000000000000600052602160045260246000fd5b60048110610c0f57610c0e610bcf565b5b50565b6000819050610c2082610bfe565b919050565b6000610c3082610c12565b9050919050565b610c4081610c25565b82525050565b6000602082019050610c5b6000830184610c37565b92915050565b600082825260208201905092915050565b7f41756374696f6e2068617320616c726561647920656e6465642e000000000000600082015250565b6000610ca8601a83610c61565b9150610cb382610c72565b602082019050919050565b60006020820190508181036000830152610cd781610c9b565b9050919050565b7f41756374696f6e2054696d65206f757400000000000000000000000000000000600082015250565b6000610d14601083610c61565b9150610d1f82610cde565b602082019050919050565b60006020820190508181036000830152610d4381610d07565b9050919050565b7f546865726520697320616c7265616479206120686967686572206269642e0000600082015250565b6000610d80601e83610c61565b9150610d8b82610d4a565b602082019050919050565b60006020820190508181036000830152610daf81610d73565b9050919050565b7f546865206f776e65722063616e6e6f7420626964206f6e207468656972206f7760008201527f6e2061756374696f6e2e00000000000000000000000000000000000000000000602082015250565b6000610e12602a83610c61565b9150610e1d82610db6565b604082019050919050565b60006020820190508181036000830152610e4181610e05565b9050919050565b7f4e487b7100000000000000000000000000000000000000000000000000000000600052601160045260246000fd5b6000610e8282610a88565b9150610e8d83610a88565b9250828201905080821115610ea557610ea4610e48565b5b92915050565b6000604082019050610ec06000830185610b4c565b610ecd6020830184610a92565b9392505050565b7f4f6e6c7920746865206f776e65722063616e20706572666f726d20746869732060008201527f616374696f6e2e00000000000000000000000000000000000000000000000000602082015250565b6000610f30602783610c61565b9150610f3b82610ed4565b604082019050919050565b60006020820190508181036000830152610f5f81610f23565b9050919050565b7f41756374696f6e20686173206e6f742079657420656e6465642e000000000000600082015250565b6000610f9c601a83610c61565b9150610fa782610f66565b602082019050919050565b60006020820190508181036000830152610fcb81610f8f565b9050919050565b7f5468652061756374696f6e2068617320616c726561647920656e6465642e0000600082015250565b6000611008601e83610c61565b915061101382610fd2565b602082019050919050565b6000602082019050818103600083015261103781610ffb565b905091905056fea26469706673582212208282d4552a0cdbc797cb864386db1386968ea3e22645b4cad54f5ab66d947ebf64736f6c63430008110033",
  "immutableReferences": {},
  "source": "// SPDX-License-Identifier: GPL-3.0\r\npragma solidity ^0.8.0;\r\n\r\ncontract Auction {\r\n    address public owner;\r\n    uint public startBlock;\r\n    uint public endBlock;\r\n    //string public ipfsHash;\r\n    uint public highestBid;\r\n    address public highestBidder;\r\n    address[] public participants;\r\n    mapping(address => uint) public bids;\r\n    enum State {Started, Running, Ended, Canceled}\r\n    State public auctionState;\r\n\r\n    event HighestBidIncreased(address bidder, uint amount);\r\n    event AuctionEnded(address winner, uint amount);\r\n\r\n    constructor() {\r\n        owner = msg.sender;\r\n        auctionState = State.Running;\r\n        startBlock = block.number;\r\n        endBlock = startBlock + 5;\r\n        //ipfsHash = _ipfsHash;\r\n    }\r\n\r\n    modifier onlyOwner() {\r\n        require(msg.sender == owner, \"Only the owner can perform this action.\");\r\n        _;\r\n    }\r\n\r\n    modifier onlyBeforeEnd() {\r\n        require(block.number < endBlock, \"Auction has already ended.\");\r\n        _;\r\n    }\r\n\r\n    modifier onlyAfterEnd() {\r\n        require(block.number >= endBlock, \"Auction has not yet ended.\");\r\n        _;\r\n    }\r\n\r\n    function bid() public payable onlyBeforeEnd {\r\n        require(auctionState == State.Running, \"Auction Time out\");\r\n        require(msg.value > highestBid, \"There is already a higher bid.\");\r\n        require(msg.sender != owner, \"The owner cannot bid on their own auction.\");\r\n\r\n        if (highestBid != 0) {\r\n            bids[highestBidder] += highestBid;\r\n            participants.push(msg.sender);\r\n        }\r\n\r\n        highestBid = msg.value;\r\n        highestBidder = msg.sender;\r\n\r\n        emit HighestBidIncreased(highestBidder, highestBid);\r\n    }\r\n\r\n    function withdraw() public {\r\n        uint amount = bids[msg.sender];\r\n\r\n        if (amount > 0) {\r\n            bids[msg.sender] = 0;\r\n\r\n            payable(msg.sender).transfer(amount);\r\n        }\r\n    }\r\n\r\n    function cancelAuction() public onlyOwner {\r\n        auctionState = State.Canceled;\r\n        payable(owner).transfer(highestBid);\r\n    }\r\n\r\n    function endAuction() public payable onlyOwner onlyAfterEnd {\r\n\r\n        require(auctionState == State.Running, \"The auction has already ended.\");\r\n\r\n        auctionState = State.Ended;\r\n\r\n        emit AuctionEnded(highestBidder, highestBid);\r\n        payable(owner).transfer(highestBid);\r\n    }\r\n\r\n}",
  "sourcePath": "C:\\Ethereum-Truffle\\Auction web\\contracts\\Auction.sol",
  "compiler": {
    "name": "solc",
    "version": "0.8.17+commit.8df45f5f.Emscripten.clang"
  },
  "schemaVersion": "3.4.11",
  "updatedAt": "2023-02-18T09:38:21.376Z",
  "devdoc": {
    "kind": "dev",
    "methods": {},
    "version": 1
  },
  "userdoc": {
    "kind": "user",
    "methods": {},
    "version": 1
  }
}